{
  "abi": [
    {
      "inputs": [
        {
          "internalType": "address",
          "name": "_owner",
          "type": "address"
        },
        {
          "internalType": "address",
          "name": "_claimer1",
          "type": "address"
        },
        {
          "internalType": "address",
          "name": "_claimer2",
          "type": "address"
        },
        {
          "internalType": "address",
          "name": "_claimer3",
          "type": "address"
        }
      ],
      "stateMutability": "nonpayable",
      "type": "constructor"
    },
    {
      "inputs": [],
      "name": "AlreadyClaimed",
      "type": "error"
    },
    {
      "inputs": [],
      "name": "EthTransferFail",
      "type": "error"
    },
    {
      "inputs": [],
      "name": "OnlyClaimer",
      "type": "error"
    },
    {
      "inputs": [],
      "name": "OnlyOwner",
      "type": "error"
    },
    {
      "anonymous": false,
      "inputs": [
        {
          "indexed": false,
          "internalType": "address",
          "name": "claimer",
          "type": "address"
        },
        {
          "indexed": false,
          "internalType": "address",
          "name": "recipient",
          "type": "address"
        }
      ],
      "name": "Claimed",
      "type": "event"
    },
    {
      "anonymous": false,
      "inputs": [
        {
          "indexed": false,
          "internalType": "address",
          "name": "oldClaimer",
          "type": "address"
        },
        {
          "indexed": false,
          "internalType": "address",
          "name": "newClaimer",
          "type": "address"
        }
      ],
      "name": "Claimer1Changed",
      "type": "event"
    },
    {
      "anonymous": false,
      "inputs": [
        {
          "indexed": false,
          "internalType": "address",
          "name": "oldClaimer",
          "type": "address"
        },
        {
          "indexed": false,
          "internalType": "address",
          "name": "newClaimer",
          "type": "address"
        }
      ],
      "name": "Claimer2Changed",
      "type": "event"
    },
    {
      "anonymous": false,
      "inputs": [
        {
          "indexed": false,
          "internalType": "address",
          "name": "oldClaimer",
          "type": "address"
        },
        {
          "indexed": false,
          "internalType": "address",
          "name": "newClaimer",
          "type": "address"
        }
      ],
      "name": "Claimer3Changed",
      "type": "event"
    },
    {
      "anonymous": false,
      "inputs": [
        {
          "indexed": false,
          "internalType": "uint256",
          "name": "amount",
          "type": "uint256"
        }
      ],
      "name": "Received",
      "type": "event"
    },
    {
      "inputs": [
        {
          "internalType": "address",
          "name": "recipient",
          "type": "address"
        }
      ],
      "name": "claim",
      "outputs": [
        {
          "internalType": "bool",
          "name": "",
          "type": "bool"
        }
      ],
      "stateMutability": "nonpayable",
      "type": "function"
    },
    {
      "inputs": [],
      "name": "claimer1",
      "outputs": [
        {
          "internalType": "address",
          "name": "",
          "type": "address"
        }
      ],
      "stateMutability": "view",
      "type": "function"
    },
    {
      "inputs": [],
      "name": "claimer2",
      "outputs": [
        {
          "internalType": "address",
          "name": "",
          "type": "address"
        }
      ],
      "stateMutability": "view",
      "type": "function"
    },
    {
      "inputs": [],
      "name": "claimer3",
      "outputs": [
        {
          "internalType": "address",
          "name": "",
          "type": "address"
        }
      ],
      "stateMutability": "view",
      "type": "function"
    },
    {
      "inputs": [],
      "name": "distributionBalance",
      "outputs": [
        {
          "internalType": "uint256",
          "name": "",
          "type": "uint256"
        }
      ],
      "stateMutability": "view",
      "type": "function"
    },
    {
      "inputs": [
        {
          "internalType": "address",
          "name": "",
          "type": "address"
        }
      ],
      "name": "hasClaimed",
      "outputs": [
        {
          "internalType": "uint16",
          "name": "",
          "type": "uint16"
        }
      ],
      "stateMutability": "view",
      "type": "function"
    },
    {
      "inputs": [],
      "name": "owner",
      "outputs": [
        {
          "internalType": "address",
          "name": "",
          "type": "address"
        }
      ],
      "stateMutability": "view",
      "type": "function"
    },
    {
      "inputs": [
        {
          "internalType": "address",
          "name": "_claimer",
          "type": "address"
        }
      ],
      "name": "setClaimer1",
      "outputs": [],
      "stateMutability": "nonpayable",
      "type": "function"
    },
    {
      "inputs": [
        {
          "internalType": "address",
          "name": "_claimer",
          "type": "address"
        }
      ],
      "name": "setClaimer2",
      "outputs": [],
      "stateMutability": "nonpayable",
      "type": "function"
    },
    {
      "inputs": [
        {
          "internalType": "address",
          "name": "_claimer",
          "type": "address"
        }
      ],
      "name": "setClaimer3",
      "outputs": [],
      "stateMutability": "nonpayable",
      "type": "function"
    },
    {
      "stateMutability": "payable",
      "type": "receive"
    }
  ],
  "bytecode": {
    "object": "0x60a06040526718fae27693b4000060805234801561001c57600080fd5b506040516109df3803806109df83398101604081905261003b916100aa565b600080546001600160a01b039586166001600160a01b03199182161790915560018054948616948216949094179093556002805492851692841692909217909155600380549190931691161790556100fe565b80516001600160a01b03811681146100a557600080fd5b919050565b600080600080608085870312156100c057600080fd5b6100c98561008e565b93506100d76020860161008e565b92506100e56040860161008e565b91506100f36060860161008e565b905092959194509250565b6080516108bf610120600039600081816102ba01526103f301526108bf6000f3fe6080604052600436106100b55760003560e01c80638da5cb5b11610069578063aec8c6a11161004e578063aec8c6a11461025b578063f5f7603b1461027b578063fb7a0d87146102a857600080fd5b80638da5cb5b14610201578063a161c54e1461022e57600080fd5b806365219e4f1161009a57806365219e4f1461017b57806373b2e80e1461019d5780638b63ee6e146101e157600080fd5b80631c746589146100f45780631e83409a1461014b57600080fd5b366100ef576040513481527fa8142743f8f70a4c26f3691cf4ed59718381fb2f18070ec52be1f1022d8555579060200160405180910390a1005b600080fd5b34801561010057600080fd5b506003546101219073ffffffffffffffffffffffffffffffffffffffff1681565b60405173ffffffffffffffffffffffffffffffffffffffff90911681526020015b60405180910390f35b34801561015757600080fd5b5061016b610166366004610811565b6102ea565b6040519015158152602001610142565b34801561018757600080fd5b5061019b610196366004610811565b610520565b005b3480156101a957600080fd5b506101ce6101b8366004610811565b60046020526000908152604090205461ffff1681565b60405161ffff9091168152602001610142565b3480156101ed57600080fd5b5061019b6101fc366004610811565b61061b565b34801561020d57600080fd5b506000546101219073ffffffffffffffffffffffffffffffffffffffff1681565b34801561023a57600080fd5b506001546101219073ffffffffffffffffffffffffffffffffffffffff1681565b34801561026757600080fd5b5061019b610276366004610811565b610716565b34801561028757600080fd5b506002546101219073ffffffffffffffffffffffffffffffffffffffff1681565b3480156102b457600080fd5b506102dc7f000000000000000000000000000000000000000000000000000000000000000081565b604051908152602001610142565b60015460009073ffffffffffffffffffffffffffffffffffffffff16331480159061032d575060025473ffffffffffffffffffffffffffffffffffffffff163314155b8015610351575060035473ffffffffffffffffffffffffffffffffffffffff163314155b15610388576040517f0a34495300000000000000000000000000000000000000000000000000000000815260040160405180910390fd5b3360009081526004602052604090205461ffff16156103d3576040517f646cf55800000000000000000000000000000000000000000000000000000000815260040160405180910390fd5b600073ffffffffffffffffffffffffffffffffffffffff831661041760037f000000000000000000000000000000000000000000000000000000000000000061084e565b604051600081818185875af1925050503d8060008114610453576040519150601f19603f3d011682016040523d82523d6000602084013e610458565b606091505b5050905080610493576040517f0c11c77700000000000000000000000000000000000000000000000000000000815260040160405180910390fd5b3360008181526004602090815260409182902080547fffffffffffffffffffffffffffffffffffffffffffffffffffffffffffff0000166001179055815192835273ffffffffffffffffffffffffffffffffffffffff8616908301527f89309c9b2aeaffbdce717113df9427298b20448c05919bf889e05f8c3094254b910160405180910390a192915050565b60005473ffffffffffffffffffffffffffffffffffffffff163314610571576040517f5fc483c500000000000000000000000000000000000000000000000000000000815260040160405180910390fd5b60035473ffffffffffffffffffffffffffffffffffffffff1660009081526004602052604090205461ffff16156105d4576040517f646cf55800000000000000000000000000000000000000000000000000000000815260040160405180910390fd5b600380547fffffffffffffffffffffffff00000000000000000000000000000000000000001673ffffffffffffffffffffffffffffffffffffffff92909216919091179055565b60005473ffffffffffffffffffffffffffffffffffffffff16331461066c576040517f5fc483c500000000000000000000000000000000000000000000000000000000815260040160405180910390fd5b60025473ffffffffffffffffffffffffffffffffffffffff1660009081526004602052604090205461ffff16156106cf576040517f646cf55800000000000000000000000000000000000000000000000000000000815260040160405180910390fd5b600280547fffffffffffffffffffffffff00000000000000000000000000000000000000001673ffffffffffffffffffffffffffffffffffffffff92909216919091179055565b60005473ffffffffffffffffffffffffffffffffffffffff163314610767576040517f5fc483c500000000000000000000000000000000000000000000000000000000815260040160405180910390fd5b60015473ffffffffffffffffffffffffffffffffffffffff1660009081526004602052604090205461ffff16156107ca576040517f646cf55800000000000000000000000000000000000000000000000000000000815260040160405180910390fd5b600180547fffffffffffffffffffffffff00000000000000000000000000000000000000001673ffffffffffffffffffffffffffffffffffffffff92909216919091179055565b60006020828403121561082357600080fd5b813573ffffffffffffffffffffffffffffffffffffffff8116811461084757600080fd5b9392505050565b600082610884577f4e487b7100000000000000000000000000000000000000000000000000000000600052601260045260246000fd5b50049056fea2646970667358221220a34dbb4788a44868fe67f8f57b64822548466882b1411bb2edc7ab98915eb2c264736f6c63430008100033",
    "linkReferences": {}
  },
  "methodIdentifiers": {
    "claim(address)": "1e83409a",
    "claimer1()": "a161c54e",
    "claimer2()": "f5f7603b",
    "claimer3()": "1c746589",
    "distributionBalance()": "fb7a0d87",
    "hasClaimed(address)": "73b2e80e",
    "owner()": "8da5cb5b",
    "setClaimer1(address)": "aec8c6a1",
    "setClaimer2(address)": "8b63ee6e",
    "setClaimer3(address)": "65219e4f"
  },
  "id": 16
}